S0130000546F75636853656E736F722E7372656394
S11300000C9434000C9440000C943E000C943E007C
S11300100C943E000C943E000C943E000C943E0064
S11300200C943E000C943E000C943E000C943E0054
S11300300C943E000C943E000C943E000C943E0044
S11300400C943E000C943E000C943E000C943E0034
S11300500C943E000C943E000C943E000C943E0024
S11300600C943E000C943E0011241FBECFEFD8E048
S1130070DEBFCDBF0E944F000C9467000C940000BB
S11300801F920F920FB60F9211244A9B02C02D9813
S113009001C02D9A0F900FBE0F901F901895259AAE
S11300A05298E89AE9E6F0E080818160808380815B
S11300B0817080838FED85B978942FEF83ED90E381
S11300C0215080409040E1F700C00000F6CFF89442
S10500D0FFCF5C
S9030000FC
